{
  "contractName": "Voting",
  "abi": [
    {
      "inputs": [
        {
          "internalType": "bytes32[]",
          "name": "candidateNames",
          "type": "bytes32[]"
        }
      ],
      "stateMutability": "nonpayable",
      "type": "constructor"
    },
    {
      "inputs": [
        {
          "internalType": "uint256",
          "name": "",
          "type": "uint256"
        }
      ],
      "name": "candidateList",
      "outputs": [
        {
          "internalType": "bytes32",
          "name": "",
          "type": "bytes32"
        }
      ],
      "stateMutability": "view",
      "type": "function",
      "constant": true
    },
    {
      "inputs": [],
      "name": "nullresp",
      "outputs": [
        {
          "internalType": "uint256",
          "name": "",
          "type": "uint256"
        }
      ],
      "stateMutability": "view",
      "type": "function",
      "constant": true
    },
    {
      "inputs": [
        {
          "internalType": "bytes32",
          "name": "",
          "type": "bytes32"
        }
      ],
      "name": "votesReceived",
      "outputs": [
        {
          "internalType": "uint256",
          "name": "",
          "type": "uint256"
        }
      ],
      "stateMutability": "view",
      "type": "function",
      "constant": true
    },
    {
      "inputs": [],
      "name": "voting_on",
      "outputs": [
        {
          "internalType": "bool",
          "name": "",
          "type": "bool"
        }
      ],
      "stateMutability": "view",
      "type": "function",
      "constant": true
    },
    {
      "inputs": [],
      "name": "start_vote",
      "outputs": [],
      "stateMutability": "nonpayable",
      "type": "function"
    },
    {
      "inputs": [],
      "name": "end_vote",
      "outputs": [],
      "stateMutability": "nonpayable",
      "type": "function"
    },
    {
      "inputs": [],
      "name": "is_voting_on",
      "outputs": [
        {
          "internalType": "bool",
          "name": "",
          "type": "bool"
        }
      ],
      "stateMutability": "view",
      "type": "function",
      "constant": true
    },
    {
      "inputs": [
        {
          "internalType": "bytes32",
          "name": "candidate",
          "type": "bytes32"
        }
      ],
      "name": "totalVotesFor",
      "outputs": [
        {
          "internalType": "uint256",
          "name": "",
          "type": "uint256"
        }
      ],
      "stateMutability": "view",
      "type": "function",
      "constant": true
    },
    {
      "inputs": [
        {
          "internalType": "bytes32",
          "name": "candidate",
          "type": "bytes32"
        }
      ],
      "name": "voteForCandidate",
      "outputs": [],
      "stateMutability": "nonpayable",
      "type": "function"
    },
    {
      "inputs": [
        {
          "internalType": "bytes32",
          "name": "candidate",
          "type": "bytes32"
        }
      ],
      "name": "validCandidate",
      "outputs": [
        {
          "internalType": "bool",
          "name": "",
          "type": "bool"
        }
      ],
      "stateMutability": "view",
      "type": "function",
      "constant": true
    }
  ],
  "bytecode": "0x60806040523480156200001157600080fd5b50604051620008d1380380620008d18339818101604052810190620000379190620001a4565b80600290805190602001906200004f9291906200007a565b506000600360006101000a81548160ff021916908315150217905550600c60018190555050620002db565b828054828255906000526020600020908101928215620000b9579160200282015b82811115620000b85782518255916020019190600101906200009b565b5b509050620000c89190620000cc565b5090565b5b80821115620000e7576000816000905550600101620000cd565b5090565b600062000102620000fc8462000212565b620001e9565b905080838252602082019050828560208602820111156200012257600080fd5b60005b858110156200015657816200013b88826200018d565b84526020840193506020830192505060018101905062000125565b5050509392505050565b600082601f8301126200017257600080fd5b815162000184848260208601620000eb565b91505092915050565b6000815190506200019e81620002c1565b92915050565b600060208284031215620001b757600080fd5b600082015167ffffffffffffffff811115620001d257600080fd5b620001e08482850162000160565b91505092915050565b6000620001f562000208565b90506200020382826200024b565b919050565b6000604051905090565b600067ffffffffffffffff82111562000230576200022f62000281565b5b602082029050602081019050919050565b6000819050919050565b6200025682620002b0565b810181811067ffffffffffffffff8211171562000278576200027762000281565b5b80604052505050565b7f4e487b7100000000000000000000000000000000000000000000000000000000600052604160045260246000fd5b6000601f19601f8301169050919050565b620002cc8162000241565b8114620002d857600080fd5b50565b6105e680620002eb6000396000f3fe608060405234801561001057600080fd5b506004361061009e5760003560e01c806371e5886e1161006657806371e5886e1461015b578063961b95a214610165578063b13c744b14610183578063c2881e6a146101b3578063cc9ab267146101d15761009e565b80631f6933c3146100a35780632f265cf7146100ad578063392e6678146100dd57806357bcdde71461010d5780637021939f1461012b575b600080fd5b6100ab6101ed565b005b6100c760048036038101906100c291906103c4565b61020a565b6040516100d49190610479565b60405180910390f35b6100f760048036038101906100f291906103c4565b610238565b6040516101049190610443565b60405180910390f35b6101156102c1565b6040516101229190610443565b60405180910390f35b610145600480360381019061014091906103c4565b6102d4565b6040516101529190610479565b60405180910390f35b6101636102ec565b005b61016d610309565b60405161017a9190610443565b60405180910390f35b61019d600480360381019061019891906103ed565b610320565b6040516101aa919061045e565b60405180910390f35b6101bb610344565b6040516101c89190610479565b60405180910390f35b6101eb60048036038101906101e691906103c4565b61034a565b005b6000600360006101000a81548160ff021916908315150217905550565b600061021582610238565b61021e57600080fd5b600080838152602001908152602001600020549050919050565b600080600090505b6002805490508110156102b6578260028281548110610288577f4e487b7100000000000000000000000000000000000000000000000000000000600052603260045260246000fd5b906000526020600020015414156102a35760019150506102bc565b80806102ae9061050a565b915050610240565b50600090505b919050565b600360009054906101000a900460ff1681565b60006020528060005260406000206000915090505481565b6001600360006101000a81548160ff021916908315150217905550565b6000600360009054906101000a900460ff16905090565b6002818154811061033057600080fd5b906000526020600020016000915090505481565b60015481565b61035381610238565b61035c57600080fd5b610364610309565b61036d57600080fd5b600160008083815260200190815260200160002060008282546103909190610494565b9250508190555050565b6000813590506103a981610582565b92915050565b6000813590506103be81610599565b92915050565b6000602082840312156103d657600080fd5b60006103e48482850161039a565b91505092915050565b6000602082840312156103ff57600080fd5b600061040d848285016103af565b91505092915050565b61041f816104ea565b82525050565b61042e816104f6565b82525050565b61043d81610500565b82525050565b60006020820190506104586000830184610416565b92915050565b60006020820190506104736000830184610425565b92915050565b600060208201905061048e6000830184610434565b92915050565b600061049f82610500565b91506104aa83610500565b9250827fffffffffffffffffffffffffffffffffffffffffffffffffffffffffffffffff038211156104df576104de610553565b5b828201905092915050565b60008115159050919050565b6000819050919050565b6000819050919050565b600061051582610500565b91507fffffffffffffffffffffffffffffffffffffffffffffffffffffffffffffffff82141561054857610547610553565b5b600182019050919050565b7f4e487b7100000000000000000000000000000000000000000000000000000000600052601160045260246000fd5b61058b816104f6565b811461059657600080fd5b50565b6105a281610500565b81146105ad57600080fd5b5056fea2646970667358221220579a76463afa5435e2f108e95174f0086a7d581deecdfd9e2f1292af43b3506664736f6c63430008040033",
  "immutableReferences": {},
  "source": "pragma solidity ^0.8.4;\ncontract Voting {\n  /* mapping field below is equivalent to an associative array or hash.\n  The key of the mapping is candidate name stored as type bytes32 and value is\n  an unsigned integer to store the vote count\n  */\n  \n  mapping (bytes32 => uint256) public votesReceived;\n  uint256 public nullresp ;\n  /* Solidity doesn't let you pass in an array of strings in the constructor (yet).\n  We will use an array of bytes32 instead to store the list of candidates\n  */\n  \n  bytes32[] public candidateList;\n  bool public voting_on;\n  /* This is the constructor which will be called once when you\n  deploy the contract to the blockchain. When we deploy the contract,\n  we will pass an array of candidates who will be contesting in the election\n  */\n  constructor(bytes32[] memory candidateNames) public {\n    candidateList = candidateNames;\n    voting_on=false;\n    nullresp=12;\n  }\n  \n  function start_vote()  public\n  {\n      voting_on=true;\n  }\n  \n  function end_vote()  public \n  {\n      voting_on=false;\n  }\n  function is_voting_on() view public returns (bool) \n  {\n      return voting_on;\n  }\n  // This function returns the total votes a candidate has received so far\n  function totalVotesFor(bytes32 candidate) view public returns (uint256) {\n    require(validCandidate(candidate));\n    return votesReceived[candidate];\n  }\n\n  // This function increments the vote count for the specified candidate. This\n  // is equivalent to casting a vote\n  function voteForCandidate(bytes32 candidate) public {\n    require(validCandidate(candidate));\n    require(is_voting_on());\n    votesReceived[candidate] += 1;\n  }\n\n  function validCandidate(bytes32 candidate) view public returns (bool) {\n    for(uint i = 0; i < candidateList.length; i++) {\n      if (candidateList[i] == candidate) {\n        return true;\n      }\n    }\n    return false;\n  }\n}\n",
  "sourcePath": "/home/anubhav/Dec_Vote/contracts/Voting.sol",
  "compiler": {
    "name": "solc",
    "version": "0.8.4+commit.c7e474f2.Emscripten.clang"
  },
  "schemaVersion": "3.4.0",
  "updatedAt": "2021-07-08T09:36:40.000Z",
  "networkType": "ethereum",
  "devdoc": {
    "kind": "dev",
    "methods": {},
    "version": 1
  },
  "userdoc": {
    "kind": "user",
    "methods": {},
    "version": 1
  }
}